{
  "contractName": "CryptocurrencyLaundererDetector",
  "abi": [
    {
      "inputs": [],
      "payable": true,
      "stateMutability": "payable",
      "type": "constructor"
    },
    {
      "anonymous": false,
      "inputs": [
        {
          "indexed": true,
          "internalType": "address",
          "name": "accountAddress",
          "type": "address"
        },
        {
          "indexed": false,
          "internalType": "uint256",
          "name": "amount",
          "type": "uint256"
        }
      ],
      "name": "Deposit",
      "type": "event"
    },
    {
      "anonymous": false,
      "inputs": [
        {
          "indexed": true,
          "internalType": "address",
          "name": "oldOwner",
          "type": "address"
        },
        {
          "indexed": true,
          "internalType": "address",
          "name": "newOwner",
          "type": "address"
        }
      ],
      "name": "OwnerSet",
      "type": "event"
    },
    {
      "anonymous": false,
      "inputs": [
        {
          "indexed": true,
          "internalType": "address",
          "name": "accountAddress",
          "type": "address"
        },
        {
          "indexed": false,
          "internalType": "uint256",
          "name": "amount",
          "type": "uint256"
        }
      ],
      "name": "Withdraw",
      "type": "event"
    },
    {
      "constant": true,
      "inputs": [
        {
          "internalType": "address",
          "name": "",
          "type": "address"
        }
      ],
      "name": "accountBalance",
      "outputs": [
        {
          "internalType": "uint256",
          "name": "",
          "type": "uint256"
        }
      ],
      "payable": false,
      "stateMutability": "view",
      "type": "function"
    },
    {
      "constant": false,
      "inputs": [
        {
          "internalType": "uint256",
          "name": "thresholdVal",
          "type": "uint256"
        }
      ],
      "name": "setThreshold",
      "outputs": [],
      "payable": false,
      "stateMutability": "nonpayable",
      "type": "function"
    },
    {
      "constant": true,
      "inputs": [],
      "name": "getThreshold",
      "outputs": [
        {
          "internalType": "uint256",
          "name": "",
          "type": "uint256"
        }
      ],
      "payable": false,
      "stateMutability": "view",
      "type": "function"
    },
    {
      "constant": false,
      "inputs": [
        {
          "internalType": "uint256",
          "name": "withdraw_amount",
          "type": "uint256"
        }
      ],
      "name": "withdraw",
      "outputs": [],
      "payable": false,
      "stateMutability": "nonpayable",
      "type": "function"
    },
    {
      "constant": false,
      "inputs": [],
      "name": "deposit",
      "outputs": [],
      "payable": true,
      "stateMutability": "payable",
      "type": "function"
    },
    {
      "constant": true,
      "inputs": [],
      "name": "getAccAmount",
      "outputs": [
        {
          "internalType": "uint256",
          "name": "",
          "type": "uint256"
        }
      ],
      "payable": false,
      "stateMutability": "view",
      "type": "function"
    },
    {
      "constant": true,
      "inputs": [],
      "name": "getBalance",
      "outputs": [
        {
          "internalType": "uint256",
          "name": "",
          "type": "uint256"
        }
      ],
      "payable": false,
      "stateMutability": "view",
      "type": "function"
    },
    {
      "constant": true,
      "inputs": [],
      "name": "getTransactors",
      "outputs": [
        {
          "internalType": "address[]",
          "name": "",
          "type": "address[]"
        }
      ],
      "payable": false,
      "stateMutability": "view",
      "type": "function"
    },
    {
      "constant": true,
      "inputs": [],
      "name": "getExceedTransactions",
      "outputs": [
        {
          "internalType": "address[]",
          "name": "",
          "type": "address[]"
        },
        {
          "internalType": "uint256[]",
          "name": "",
          "type": "uint256[]"
        }
      ],
      "payable": false,
      "stateMutability": "view",
      "type": "function"
    },
    {
      "constant": true,
      "inputs": [],
      "name": "getLaunder",
      "outputs": [
        {
          "internalType": "address[]",
          "name": "",
          "type": "address[]"
        }
      ],
      "payable": false,
      "stateMutability": "view",
      "type": "function"
    }
  ],
  "bytecode": "0x6080604052678ac7230489e800006000556802b5e3af16b188000060015533600860006101000a81548173ffffffffffffffffffffffffffffffffffffffff021916908373ffffffffffffffffffffffffffffffffffffffff1602179055506000600681905550610bce806100756000396000f3fe6080604052600436106100915760003560e01c8063a9f0546c11610059578063a9f0546c146101ce578063bed5090614610282578063d0e30db0146102ee578063d294cb0f146102f8578063e75235b81461035d57610091565b80631003ae0a1461009657806312065fe0146100c15780632d26b309146100ec5780632e1a7d4d14610158578063960bfe0414610193575b600080fd5b3480156100a257600080fd5b506100ab610388565b6040518082815260200191505060405180910390f35b3480156100cd57600080fd5b506100d66103cf565b6040518082815260200191505060405180910390f35b3480156100f857600080fd5b506101016103d7565b6040518080602001828103825283818151815260200191508051906020019060200280838360005b83811015610144578082015181840152602081019050610129565b505050509050019250505060405180910390f35b34801561016457600080fd5b506101916004803603602081101561017b57600080fd5b8101908080359060200190929190505050610465565b005b34801561019f57600080fd5b506101cc600480360360208110156101b657600080fd5b8101908080359060200190929190505050610644565b005b3480156101da57600080fd5b506101e36106a8565b604051808060200180602001838103835285818151815260200191508051906020019060200280838360005b8381101561022a57808201518184015260208101905061020f565b50505050905001838103825284818151815260200191508051906020019060200280838360005b8381101561026c578082015181840152602081019050610251565b5050505090500194505050505060405180910390f35b34801561028e57600080fd5b506102976107eb565b6040518080602001828103825283818151815260200191508051906020019060200280838360005b838110156102da5780820151818401526020810190506102bf565b505050509050019250505060405180910390f35b6102f661096c565b005b34801561030457600080fd5b506103476004803603602081101561031b57600080fd5b81019080803573ffffffffffffffffffffffffffffffffffffffff169060200190929190505050610b0c565b6040518082815260200191505060405180910390f35b34801561036957600080fd5b50610372610b24565b6040518082815260200191505060405180910390f35b6000600760003373ffffffffffffffffffffffffffffffffffffffff1673ffffffffffffffffffffffffffffffffffffffff16815260200190815260200160002054905090565b600047905090565b6060600380548060200260200160405190810160405280929190818152602001828054801561045b57602002820191906000526020600020905b8160009054906101000a900473ffffffffffffffffffffffffffffffffffffffff1673ffffffffffffffffffffffffffffffffffffffff1681526020019060010190808311610411575b5050505050905090565b670de0b6b3a764000081024710156104e5576040517f08c379a00000000000000000000000000000000000000000000000000000000081526004018080602001828103825260148152602001807f496e73756666696369656e742042616c616e636500000000000000000000000081525060200191505060405180910390fd5b3373ffffffffffffffffffffffffffffffffffffffff166108fc670de0b6b3a764000083029081150290604051600060405180830381858888f19350505050158015610535573d6000803e3d6000fd5b5060033390806001815401808255809150509060018203906000526020600020016000909192909190916101000a81548173ffffffffffffffffffffffffffffffffffffffff021916908373ffffffffffffffffffffffffffffffffffffffff16021790555050670de0b6b3a76400008102600760003373ffffffffffffffffffffffffffffffffffffffff1673ffffffffffffffffffffffffffffffffffffffff168152602001908152602001600020600082825403925050819055503373ffffffffffffffffffffffffffffffffffffffff167f884edad9ce6fa2440d8a54cc123490eb96d2768479d49ff9c7366125a9424364826040518082815260200191505060405180910390a250565b600860009054906101000a900473ffffffffffffffffffffffffffffffffffffffff1673ffffffffffffffffffffffffffffffffffffffff163373ffffffffffffffffffffffffffffffffffffffff161461069e57600080fd5b8060008190555050565b606080600860009054906101000a900473ffffffffffffffffffffffffffffffffffffffff1673ffffffffffffffffffffffffffffffffffffffff163373ffffffffffffffffffffffffffffffffffffffff161461070557600080fd5b600460058180548060200260200160405190810160405280929190818152602001828054801561078a57602002820191906000526020600020905b8160009054906101000a900473ffffffffffffffffffffffffffffffffffffffff1673ffffffffffffffffffffffffffffffffffffffff1681526020019060010190808311610740575b50505050509150808054806020026020016040519081016040528092919081815260200182805480156107dc57602002820191906000526020600020905b8154815260200190600101908083116107c8575b50505050509050915091509091565b6060600860009054906101000a900473ffffffffffffffffffffffffffffffffffffffff1673ffffffffffffffffffffffffffffffffffffffff163373ffffffffffffffffffffffffffffffffffffffff161461084757600080fd5b6001544711156108df5760038054806020026020016040519081016040528092919081815260200182805480156108d357602002820191906000526020600020905b8160009054906101000a900473ffffffffffffffffffffffffffffffffffffffff1673ffffffffffffffffffffffffffffffffffffffff1681526020019060010190808311610889575b50505050509050610969565b600280548060200260200160405190810160405280929190818152602001828054801561096157602002820191906000526020600020905b8160009054906101000a900473ffffffffffffffffffffffffffffffffffffffff1673ffffffffffffffffffffffffffffffffffffffff1681526020019060010190808311610917575b505050505090505b90565b60033390806001815401808255809150509060018203906000526020600020016000909192909190916101000a81548173ffffffffffffffffffffffffffffffffffffffff021916908373ffffffffffffffffffffffffffffffffffffffff1602179055505034600760003373ffffffffffffffffffffffffffffffffffffffff1673ffffffffffffffffffffffffffffffffffffffff16815260200190815260200160002060008282540192505081905550600054341115610abc5760043390806001815401808255809150509060018203906000526020600020016000909192909190916101000a81548173ffffffffffffffffffffffffffffffffffffffff021916908373ffffffffffffffffffffffffffffffffffffffff1602179055505060053490806001815401808255809150509060018203906000526020600020016000909192909190915055505b3373ffffffffffffffffffffffffffffffffffffffff167fe1fffcc4923d04b559f4d29a8bfc6cda04eb5b0d3c460751c2402c5c5cc9109c346040518082815260200191505060405180910390a2565b60076020528060005260406000206000915090505481565b6000600860009054906101000a900473ffffffffffffffffffffffffffffffffffffffff1673ffffffffffffffffffffffffffffffffffffffff163373ffffffffffffffffffffffffffffffffffffffff1614610b8057600080fd5b670de0b6b3a764000060005481610b9357fe5b0490509056fea265627a7a7231582040eb01bbc6d15962470a3eb3afb382e0488860b1a91cdc43741e01dc6c59b54d64736f6c63430005100032",
  "source": "pragma solidity >=0.5.16 <0.8.0;\r\n\r\ncontract CryptocurrencyLaundererDetector {\r\n    \r\n    // Initialize variable\r\n    uint private threshold = 10 * 10**18;\r\n    uint private maxBalance = 50 * 10**18;\r\n    address[] private empty;\r\n    address[] private transactors;\r\n    address[] private potentialLaunder;\r\n    uint[] private amountExceed;\r\n    uint private owner;\r\n    \r\n    // Event for EVM logging\r\n    event OwnerSet(address indexed oldOwner, address indexed newOwner);\r\n    event Deposit(address indexed accountAddress, uint amount);\r\n    event Withdraw(address indexed accountAddress, uint amount);\r\n    mapping (address => uint256) public accountBalance;\r\n    \r\n    address ownerBankNegara;\r\n    \r\n    // Modifier to check if caller is owner\r\n    modifier BankNegara() {\r\n        require(msg.sender == ownerBankNegara);\r\n        _;\r\n    }\r\n    \r\n    // Set contract deployer as owner\r\n    constructor() public payable{\r\n        ownerBankNegara = msg.sender;\r\n        owner = 0;\r\n    }\r\n    \r\n    // Set threshold\r\n    function setThreshold(uint thresholdVal) public BankNegara {\r\n        threshold = thresholdVal;\r\n    }\r\n    \r\n    // View threshold\r\n    function getThreshold() public BankNegara view returns (uint) {\r\n        return threshold / (10**18);\r\n    }\r\n    \r\n    // Withdraw fund\r\n    function withdraw(uint withdraw_amount) public {\r\n\r\n        // Limit withdrawal amount\r\n        require(address(this).balance >= withdraw_amount * 1 ether, \"Insufficient Balance\");\r\n\r\n        // Send the amount to the address that requested it\r\n        msg.sender.transfer(withdraw_amount * 1 ether);\r\n        \r\n        transactors.push(msg.sender);\r\n        \r\n        // Minus withdraw amount in account balance\r\n        accountBalance[msg.sender] -= withdraw_amount* 1 ether;\r\n        \r\n        emit Withdraw(msg.sender, withdraw_amount);\r\n    }\r\n    \r\n    // Deposit fund\r\n    function deposit() public payable {\r\n         transactors.push(msg.sender);\r\n        \r\n        accountBalance[msg.sender] += msg.value;\r\n\r\n        if(msg.value > threshold){\r\n            potentialLaunder.push(msg.sender);\r\n            amountExceed.push(msg.value);\r\n        }\r\n                    \r\n        emit Deposit(msg.sender, msg.value);\r\n    }\r\n    \r\n    // Get account amount\r\n    function getAccAmount() public view returns (uint256) {\r\n        return accountBalance[msg.sender];\r\n    }\r\n    \r\n    // Get balance in the account\r\n    function getBalance() public view returns (uint256) {\r\n        return address(this).balance;\r\n    }\r\n    \r\n    // Get transactors\r\n    function getTransactors() public view returns (address[] memory) {\r\n        return transactors;\r\n    }\r\n    \r\n    // Get transcation exceed max account balance\r\n    function getExceedTransactions() public BankNegara view returns (address[] memory, uint[] memory) {\r\n        return (potentialLaunder, amountExceed);\r\n    }\r\n    \r\n    // Get potential launder\r\n    function getLaunder() public BankNegara view returns (address[] memory) {\r\n        if(address(this).balance > maxBalance)\r\n            return transactors;\r\n            \r\n        else\r\n            return empty;\r\n    }\r\n}",
  "sourcePath": "C:/Users/User/blockchain-project/contracts/BankNegaraContract.sol",
  "compiler": {
    "name": "solc",
    "version": "0.5.16+commit.9c3226ce.Emscripten.clang"
  },
  "schemaVersion": "3.3.3",
  "updatedAt": "2021-01-18T13:31:16.829Z",
  "networkType": "ethereum",
  "devdoc": {
    "methods": {}
  },
  "userdoc": {
    "methods": {}
  }
}